:1000000002032702000000000000000200000000C0
:1000100000000002000000000000000200000000DC
:0E0020000000000200000000000000020000CE
:10002E00EC600FEBC313FBEA13FAE913F9E813F8CC
:03003E00DCF122D0
:10004100852886E5AA30E60AE5AA20E70280F98537
:0D0051002886E5AA20E70280F9858629228D
:10005E00EF88F0A4CB8CF0A42BFBEE89F0A42BFB45
:10006E008DF0EAA42BFBED89F0A4CAAFF08CF0A4BE
:10007E002ACB3F25F0FAEE88F0A42BCA35F0FBEC24
:10008E0089F0A4F9AEF0EC88F0A4C8C5F029CA3EF8
:0F009E00F9E43BFBEDA42AC935F0FAE43BFB2261
:1000AD00C2917528081141A82286281141D291C20A
:1000BD00917528071141E5222401F886281141D2B6
:1000CD0091C2917528061141E5222402F886281166
:1000DD0041D291C2917528051141E5222403F8867C
:1000ED00281141D291C2917528041141E5222404B1
:1000FD00F886281141D291C2917528031141E5224C
:10010D002405F886281141D291C29175280211411A
:10011D00E5222406F886281141D291C29175280155
:0E012D001141E5222407F886281141D29122C3
:10013B0075244175250375260075270078417903D1
:10014B007A007B00AC22AD23E4FEE4F507115E855B
:10015B0000248501258502268503277C05112E8524
:10016B000024850125850226850327D3E89408E919
:10017B009400EA9400EB9400401BC3E5249408F52B
:10018B0024E5259400F525E5269400F526E527942E
:10019B0000F527800C752400752500752600752742
:1001AB0000E5244525452645276026C3E524940113
:1001BB00F524E5259400F525E5269400F526E5279D
:1001CB009400F527000000000000000000000080F4
:0201DB00D02230
:0801DD00E493F608A3D9F9220E
:1001E500E5197049853F1875110F751200D3E51192
:1001F5009400E5129400402574302511F8C3E511EB
:100205009401F9E5129400FA743029F9E7F6C3E58B
:10021500119401F511E5129400F51280D08518307E
:0E02250075223011AD851F22852023313B222A
:10023300750815750903750A21750E22750F037567
:100243001000751A5B751B02751C00759850758735
:080253008075884075892022A6
:06025B00A298E433F82232
:10026100C29175280911417528001141D291C2919D
:1002710075280A114175280F1141D291C291752833
:100281000B11417528071141D291C29175280C11AA
:10029100417528011141D291C29175280011417512
:0702A10028FF1141D2912258
:1002A8007513FF7514FF7515FF750B41750C0075F7
:1002B8000D2875D51353AAFE00D3E5D592E6F5D5DA
:0102C8002213
:1002C900E5197047853018751D00751E00C3E51DB9
:1002D900940FE51E940050237430251DF8740125F0
:1002E9001DF97400351EFA743029F9E7F6740125F1
:1002F9001DF51D7400351EF51E80D285183F752227
:0C0309003011AD851F22852023313B22DE
:0D031500C29985219920990280FBC299228E
:05032200C298A8992219
:10032700758180120445751F647520007519007565
:100337001D00751E00438780758DF5758BF551334C
:100347007EA37F1EDFFEDEFC0051A85161752230BF
:1003570011AD515BE8600A71228500178500217194
:1003670015805075190175224011AD61EA751901A3
:1003770075224811AD61EA75190061EA75190161C5
:10038700EAD3E51F940AE5209400400DC3E51F94C6
:100397000AF51FE5209400F5208048740A251FF50B
:1003A7001F74003520F520803A851716803585178C
:1003B700168030E517644160AAE517645360AEE51F
:1003C70017645060B2E517644F60B1E51764466083
:1003D700B0E517645760C4E517644C60CCE5176453
:1003E7005260CB751779E5197030801651C9802A8C
:1003F70031E5802675224011AD801F75224811AD69
:100407008018E516644C60E4E516645260E2E51670
:0E041700644160E0E516645360E1615980FEC7
:0E044500783079207582257583041201DD223E
:1004250067065B064E3E0F4F00000000000000000F
:08043500FFFFFFFFFFFFFFFFC7
:08043D000000000000000000B7
:00000001FF
