:100000000206B40200000000000000020000000030
:1000100000000002000000000000000200000000DC
:0E0020000000000200000000000000020000CE
:02002E000022AE
:060030007F14DFFE002238
:0A0036007E097FE9DFFEDEFC0022F8
:10004000E5505480F8630080E8600478008002780E
:1000500001E81392B7E5505440F8630040E86004AB
:10006000780080027801E81392B6E5505420F863D6
:100070000020E86004780080027801E81392B5E57A
:10008000505410F8630010E8600478008002780192
:10009000E81392B4E51D6004780080027801E8134B
:1000A0009292D295112EC295E5505408F86300083B
:1000B000E86004780080027801E81392B7E55054B4
:1000C00004F8630004E86004780080027801E81313
:1000D00092B6E5505402F8630002E86004780080AC
:1000E000027801E81392B5E5505401F8630001E885
:1000F0006004780080027801E81392B4E51D600482
:10010000780080027801E8139292D295112EC29560
:0B011000E51D60041136800211302252
:05011B007FCFDFFE2292
:050120007F20DFFE223C
:0C012500751D00854F501140751D012212
:100131008019754B80802E754BC08029754B94803A
:1001410024754BD4801F754B80801AE54B64016088
:10015100E1E54B640260E0E54B640360DFE54B647D
:100161000460DE80E1C3E54C9401F8E54B28F88595
:10017100004B8500501140751D00754E00E54D2561
:100181004EF8E6600DE54D254EF8864F3125054EBA
:0601910080EB751D012248
:10019700754C00754B00D3E54B94075022C2A11153
:1001A7002ED2A1112EA2A1E433FAA94BEA098002AB
:1001B700C333D9FCF8424C11301130054B80D7A816
:0201C7004C22C8
:1001C900754C00D3E54C94075020A84CE54B0880AA
:1001D90002C313D8FCF54DC2A1112E112EE54D1302
:0F01E90092A13120D2A1054C80D91130113022C2
:1001F800BD000BB90029E88CF084F8ACF022E4CDFE
:10020800FF75F008E828F8E933F9ED33FDE99CEDCE
:100218009F4005FDE99CF908D5F0E9E4C9FC22EC0A
:10022800FFF5F0E98420D21CF9ACF075F008E82855
:10023800F8EC33FC40079F5006D5F0F222C39FFC30
:0502480008D5F0EA22D8
:10024D00E88CF0A4AFF0C88DF0A42FC98CF0A429D0
:02025D00F92284
:10025F00C2A1311BD2A13120A2A1E433F54B311B36
:03026F00A84B2277
:10027200E52B5400F8E52C5480F9E8496015753CEB
:100282002D632BFF632CFF7401252BF52B74003596
:100292002CF52C7A01E52CA82B0A8005C313C81370
:1002A200C8DAF9F985002D75F064E884F8600D75F7
:1002B200F064E52D84F82430F53C8003753C3075FC
:1002C200F00AE52D84F875F00AE884E5F0F82430A8
:1002D200F885003D85003075F00AE52D84E5F0F8DB
:1002E2002430F885003E8500317A03A92CE52B0ADB
:1002F2008005C333C933C9DAF9F885002E85012F89
:1003020053000F53010085002E85012F7C717D0261
:10031200514D85002E85012F7CE87D0331F8743024
:1003220028F5407C647D00A82EA92F31F87C0A7D37
:100332000031F8A804A905743028F5417C0A7D0033
:10034200A82EA92F31F87C0A7D0031F8A804A9054E
:10035200743028F5427C0A7D00A82EA92F31F8A816
:1003620004A905743028F543854033854134754B23
:0A03720002754C09754D303131223F
:0D037C00C299852B9920990280FBC299221D
:10038900852B2EA82B052BAA2CAB2D7401252CF51A
:100399002C7400352DF52D850282850383E493F9AC
:0A03A900A601E6600280DCA82E2207
:1003B300515F754BCC31C9754B4431C97F31DFFE79
:1003C30000515F754BCC31C9754BBE31C93197852F
:1003D3000008E4F5093197A90078007A00E82508B8
:0803E300F508E93509F50922CE
:1003EB008019752B80802E752BC08029752B9480DE
:1003FB0024752BD4801F752B80801AE52B6401602C
:10040B00E1E52B640260E0E52B640360DFE52B6420
:10041B000460DE80E1C3E52C9401F8E52B28F88518
:10042B00002B751D018500501140751D00852D5049
:06043B001140751D0122B5
:10044100752900A828862AE52A6010852A2B717C47
:0C0451000529E5282529F8862A80EC22E0
:05045D00C298A89922DD
:10046200C295C292113611361136C2B7C2B6C2B5A2
:10047200C2B4D2B5D2B4D295112EC2951136D2954C
:10048200112EC2951136D295112EC2951136D2B5C2
:10049200C2B4D295112EC2951136C2B7C2B6C2B538
:1004A200D2B5C2B4D295112EC295C2B5D2B7D295E9
:1004B200112EC2951136C2B7D2B4D295112EC29561
:1004C200C2B4D295112EC2951136C2B4D295112E54
:1004D200C295D2B4D295112EC2951136C2B4D2951C
:1004E200112EC295D2B7D2B6D2B5D2B4D295112EB0
:0804F200C2951136751D0122AF
:0604FA00A298E433F82291
:10050000751B00751C007550011140752B0A752C68
:100510000E752D08718985004D754B01754C0131A3
:1005200031752B0A752C33752D08718985004D7531
:100530004B01754C0B3131752B0A752C18752D0834
:10054000718985004D754B02754C013131752B0257
:10055000752C0F752DB271EB752B02752C10752D46
:040560004371EB22D6
:08056400E493F608A3D9F92283
:10056C00751B00751C017550011140752B0A752CFB
:10057C000E752D08718985004D754B01754C013137
:10058C0031752B0A752C27752D08718985004D75D1
:10059C004B01754C0B3131752B0A752C18752D08C8
:0E05AC00718985004D754B02754C013131226D
:1005BA0075227C75230375242B75255D75260475B4
:1005CA002700751FFA7520047521007598507587E4
:0805DA0080758840758920221C
:1005E200751B01751C007550011140752B0A752C85
:1005F2000E752D08718985004D754B01754C0131C1
:1006020031752B0A752C2D752D08718985004D7554
:100612004B01754C0B3131752B0A752C18752D0851
:10062200718985004D754B02754C013131752B0274
:10063200752C0F752DB271EB752B02752C10752D63
:040642004371EB22F3
:10064600751B01751C017550011140752B0A752C1F
:100656000E752D08718985004D754B01754C01315C
:1006660031752B0A752C20752D08718985004D75FD
:100676004B01754C0B3131752B0A752C18752D08ED
:10068600718985004D754B02754C01313171B38509
:10069600082B85092C5172752B02752C0F752DB2FE
:0E06A60071EB752B02752C10752D4371EB2234
:1006B400758180120838438780758DF5758BF5B187
:1006C400BA7EA37F1EDFFEDEFC00752836914175DD
:1006D4001B00751C009162755001114075500C117E
:1006E40040752B0A752C0E752D08718985004D7582
:1006F4004B01754C013131752B0A752C33752D085E
:10070400718985004D754B01754C0B3131752B0A80
:10071400752C18752D08718985004D754B02754C23
:10072400013131752B02752C0F752DB271EB752BC0
:1007340002752C10752D4371EB91FAE86005915DFB
:1007440085001E8010B1008024B1E28020D1468053
:100754001CB16C8018E51E644F60EAE51E644660B7
:10076400E8E51E645360E6E51E645860E4751E798E
:10077400E51B6002E1EFE51C702F71B3754B027548
:100784004C09754D4531317D047E2B7F9DDFFEDEA6
:10079400FCDDFA85082B85092C51727D077E567F76
:1007A4003CDFFEDEFCDDFA802C752B0A752C0E7501
:1007B4002D08718985004D754B01754C01313175DA
:1007C4002B0A752C27752D08718985004D754B01F1
:1007D400754C0B3131E51B64017010E51C7002800F
:0F07E4000A71B385082B85092C5172E13D80FE07
:0E0838007830791B7582F375830712056422F0
:0607F30030302E30300012
:0607F900537461727400EC
:0907FF003030302E303030300073
:060808002020202020004A
:0A080E004D2E204C554352553A0080
:0808180054656D702D2D3E00AA
:0708200053494E474C45000F
:06082700434C4541520064
:06082D00432E4F46460079
:05083300432E4F4E00B2
:00000001FF
