:100000000202F802000000000000000200000000F0
:1000100000000002000000000000000200000000DC
:0E0020000000000200000000000000020000CE
:06002E007F03DFFE00224B
:020034000022A8
:09003600112ED286112EC2862281
:10003F0075A0FF11341134D284C286D285D28611B5
:0F004F002E85A05AC286C28511341134A85A22B8
:10005E00E55A547FF885005A530040E86006D28274
:09006E00C2838004C282D2832205
:10007700E55A547FF885005AC284C2855300BF856C
:0E008700005A43004085005A8500A011362221
:0D009500C284C285E55A44B8F5A011362298
:0C00A200C286D284C285855AA011362285
:1000AE00E88CF0A4AFF0C88DF0A42FC98CF0A42971
:0200BE00F92225
:1000C000C3E52A951DF8E4951EF9AC19E4FD11AEBF
:1000D000850058850159852B5A1177852C5A119521
:1000E000752E00C3E52E951940022168852B5A1103
:1000F0005E852C5A1195852B5A1177113F85002F5B
:10010000113F85002F852B5A115E852C5A1195853C
:100110002B5A1177E51F2558F9E5203559FA850145
:1001200082850283E493F885005674012558F558BA
:1001300074003559F559E864FFF557801085572F3D
:10014000801B85562F8016E556622F8010E52D60A6
:10015000ECE52D640160EBE52D640260EA852F5A21
:1001600011A2052B052E01E3852B5A115E852C5A11
:100170001195852B5A11777556FF75570080148598
:10018000562F85565A11A2801485572F85575A111C
:0E019000A2800AE52D60E8E52D640160EC22F6
:06019E00A298E433F822F0
:1001A400C287C284C285D2871134C282D28375A029
:1001B4003F113675A0C01136D282C28375A03F119B
:1001C4003675A0C01136751905751207751FE175CE
:0901D400200B751D20751E002290
:1001DD00752800E5242528F8E66020E5242528F873
:1001ED00862A85252B85262C85272D11C0E51924DA
:0C01FD0001F8E52528F525052880D8220A
:10020900C282D283752600D3E5269407501C852621
:100219005A1195752500D3E525943F500985245A2F
:1002290011A2052580F0052680DDC283D2827526BC
:1002390000D3E5269407501C85265A11957525008B
:10024900D3E525943F500985245A11A2052580F04C
:05025900052680DD22F6
:10025E00750F997510027511247516A6751702750E
:10026E00180075139E7514017515007598507587D5
:08027E0080758840758920227B
:1002860085241F85252085281D85291E85261985F7
:030296002712220A
:0D029900C29985249920990280FBC2992208
:0502A600C298A8992296
:0802AB00E493F608A3D9F9223F
:1002B300752600C3E5269403500BE5252526F8761D
:1002C30020052680EEE5252526F876001526E5256A
:1002D3002526F875F00AE52484E5F0F92430F9A61B
:1002E3000175F00AE52484F9850124E9700280048C
:0502F300152680DA224F
:1002F800758180120DE7752279438780758DF575B4
:100308008BF5515E7EA37F1EDFFEDEFC0031A475F7
:10031800240051097524E1752504752608752707F9
:10032800752820752900518675213475233F752459
:100338003475251475260375270131DD8523247549
:10034800250175260575270131DD752A2D752B25A3
:10035800752C05752D0111C0752A2D752B52752C1C
:1003680005752D0111C0755300319EE8600A51A62C
:1003780085000E8500245199802F755300803C75A7
:1003880053018037753200753300754D00754E0086
:100398007554007555008523247525017526057546
:1003A800270131DD7553018012E50E645060CBE5FD
:1003B8000E644F60CAE50E645260C9750E79E55344
:1003C800600281DD7D077E567F3CDFFEDEFCDDFAC4
:1003D80074012554F55474003555F5558554247524
:1003E800250851B375240875255B75260575270101
:1003F80031DDC3E554940A74006480F8E5556480DF
:1004080098500E7524517525647526057527013198
:10041800DD743C655470047400655570477554006C
:100428007555007401254DF54D7400354EF54E8512
:100438004D2475250B51B375240B75252E7526058E
:1004480075270131DDC3E54D940A74006480F8E531
:100458004E648098500E75244F752537752605759E
:10046800270131DD743C654D70047400654E70657C
:10047800754D00754E0074012532F5327400353320
:10048800F53385322475251A51B375241A7525015B
:1004980075260575270131DDC3E532940A740064B9
:1004A80080F8E533648098500E75243075250A75F8
:1004B800260575270131DD746465327004740065A2
:1004C800337012753200753300754D00754E007526
:0904D8005400755500617180FEAD
:0E0DE700783079267582C175830D1202AB2219
:1004E100000000000000000000065F5F0600000041
:1004F1000007070007070000147F7F147F7F1400A7
:10050100242E6B6B3A120000466630180C666200AE
:10051100307A4F5D377A480004070300000000007D
:10052100001C3E63410000000041633E1C000000CE
:10053100082A3E1C1C3E2A0808083E3E0808000006
:100541000080E060000000000808080808080000BA
:1005510000006060000000006030180C060301001C
:100561003E7F71594D7F3E0040427F7F40400000F9
:10057100627359496F660000226349497F36000062
:10058100181C16537F7F5000276745457D390000B1
:100591003C7E4B4979300000030371790F0700005D
:1005A100367F49497F360000064F49693F1E0000EA
:1005B10000006666000000000080E66600000000A2
:1005C100081C366341000000242424242424000054
:1005D100004163361C080000020351590F06000058
:1005E1003E7F415D5D1F1E007C7E13137E7C0000FB
:1005F100417F7F49497F36001C3E634141632200B0
:10060100417F7F41633E1C00417F7F495D41630023
:10061100417F7F491D0103001C3E634151737200FC
:100621007F7F08087F7F000000417F7F410000003D
:10063100307040417F3F0100417F7F081C7763009C
:10064100417F7F41406070007F7F0E1C0E7F7F00E5
:100651007F7F060C187F7F001C3E6341633E1C00B8
:10066100417F7F49090F06001E3F21717F5E000017
:10067100417F7F09197F6600266F4D597332000053
:1006810003417F7F410300007F7F40407F7F000067
:100691001F3F60603F1F00007F7F3018307F7F0069
:1006A10043673C183C674300074F78784F070000C9
:1006B100476371594D677300007F7F41410000001E
:1006C1000103060C183060000041417F7F000000EB
:1006D100080C0603060C08008080808080808080E2
:1006E1000000030704000000207454543C784000CB
:1006F100417F3F4848783000387C44446C280000F2
:10070100307848493F7F4000387C54545C180000E1
:10071100487E7F490302000098BCA4A4F87C040031
:10072100417F7F08047C780000447D7D400000000B
:1007310060E08080FD7D0000417F7F10386C4400C7
:1007410000417F7F400000007C7C18381C7C7800D1
:100751007C7C04047C780000387C44447C380000B4
:1007610084FCF8A4243C1800183C24A4F8FC840060
:10077100447C784C041C1800485C545474240000D8
:1007810000043E7F442400003C7C40403C7C40000F
:100791001C3C60603C1C00003C7C7038707C3C0060
:1007A100446C3810386C44009CBCA0A0FC7C000058
:1007B1004C64745C4C64000008083E7741410000C1
:1007C10000000077770000004141773E08080000F3
:1007D100020301030203010070784C464C7870005B
:1007E1000E9F91B1FB4A00003A7A40407A7A40006C
:1007F100387C54555D19000002237555557D7B42A7
:10080100217554547D794000217555547C78400000
:10081100207457577C784000183CA4A4E4400000A1
:10082100023B7D55555D1B02397D54545D19000015
:10083100397D55545C18000001457C7C4101000064
:100841000203457D7D43020001457D7C400000009F
:10085100797D1612167D790070782B2B7870000047
:10086100447C7C5555450000207454547C7C545480
:100871007C7E0B097F7F4900327B49497B32000036
:10088100327A48487A320000327A4A487830000099
:100891003A7B41417B7A40003A7A42407878400085
:1008A1009ABAA0A0FA7A000001193C66663C1901C7
:1008B1003D7D40407D3D0000183C24E7E7242400B5
:1008C100687E7F49436620002B2FFCFC2F2B000004
:1008D100FFFF09092FF6F8A040C088FE7F09030237
:1008E100207454557D79400000447D7D4100000015
:1008F1003078484A7A320000387840427A7A4000AB
:100901007A7A0A0A7A7000007D7D19317D7D0000B6
:1009110000262F292F2F280000262F292F260000FF
:1009210030784D456020000038380808080800007C
:1009310008080808383800004F6F3018CCEEBB911A
:100941004F6F30186C76FBF90000007B7B000000D4
:10095100081C3622081C362222361C0822361C08A6
:10096100AA005500AA005500AA55AA55AA55AA558C
:10097100DDFFAA77DDAAFF77000000FFFF0000007E
:10098100101010FFFF000000141414FFFF000000FE
:100991001010FFFF00FFFF001010F0F010F0F0004A
:1009A100141414FCFC0000001414F7F700FFFF00FE
:1009B1000000FFFF00FFFF001414F4F404FCFC002E
:1009C10014141717101F1F0010101F1F101F1F00D6
:1009D1001414141F1F000000101010F0F00000008C
:1009E1000000001F1F1010101010101F1F101010FA
:1009F100101010F0F0101010000000FFFF10101088
:100A01001010101010101010101010FFFF10101007
:100A1100000000FFFF1414140000FFFF00FFFF108F
:100A210000001F1F101717140000FCFC04F4F4143D
:100A310014141717101717141414F4F404F4F414FD
:100A41000000FFFF00F7F714141414141414141405
:100A51001414F7F700F7F7141414141717141414D7
:100A610010101F1F101F1F10141414F4F414141469
:100A71001010F0F010F0F01000001F1F101F1F10D9
:100A81000000001F1F141414000000FCFC141414B7
:100A91000000F0F010F0F0101010FFFF10FFFF1039
:100AA100141414FFFF1414141010101F1F00000061
:100AB100000000F0F0101010FFFFFFFFFFFFFFFF2D
:100AC100F0F0F0F0F0F0F0F0FFFFFFFF00000000A9
:100AD10000000000FFFFFFFF0F0F0F0F0F0F0F0FA1
:100AE100387C446C386C4400FCFE2A2A3E14000019
:100AF1007E7E020206060000027E7E027E7E0200EB
:100B010063775D4963630000387C447C3C040400E6
:100B110080FE7E20203E1E000406027E7C0602002E
:100B210099BDE7E7BD9900001C3E6B496B3E1C0077
:100B31004C7E7301737E4C0030784A4F7D39000042
:100B4100183C243C3C243C1898FC643C3E273D184E
:100B51001C3E6B49490000007E7F01017F7E000041
:100B61002A2A2A2A2A2A000044445F5F44440000BA
:100B710040515B4E4440000040444E5B51400000F8
:100B8100000000FEFF01070660E080FF7F0000001B
:100B910008086B6B08080000243612362436120050
:100BA10000060F090F0600000000001818000000E1
:100BB1000000001010000000103070C0FFFF0101A4
:100BC100001F1F011F1E000000191D171200000049
:100BD10000003C3C3C3C000000000E1F11111F0EA8
:100BE100000000000000005F000000070007001483
:100BF1007F147F14242A7F2A122313086462364942
:100C01005522500005030000001C22410000412232
:100C11001C00082A1C2A0808083E08080050300059
:100C210000080808080800303000002010080402FD
:100C31003E5149453E00427F4000426151494621B3
:100C410041454B311814127F1027454545393C4A1F
:100C5100494930017109050336494949360649496F
:100C6100291E003636000000563600000008142206
:100C710041141414141441221408000201510906EC
:100C8100324979413E7E1111117E7F494949363EF3
:100C9100414141227F4141221C7F494949417F090C
:100CA1000901013E414151327F0808087F00417F1F
:100CB10041002040413F017F081422417F404040D4
:100CC100407F0204027F7F0408107F3E4141413E84
:100CD1007F090909063E4151215E7F0919294646CE
:100CE1004949493101017F01013F4040403F1F20F7
:100CF10040201F7F2018207F6314081463030478A9
:100D01000403615149454300007F41410204081039
:100D11002041417F00000402010204404040404064
:100D2100000102040020545454787F484444383868
:100D310044444420384444487F3854545418087E6D
:100D4100090102081454543C7F0804047800447DCE
:100D510040002040443D00007F10284400417F4076
:100D6100007C041804787C0804047838444444382E
:100D71007C14141408081414187C7C080404084812
:100D810054545420043F4440203C4040207C1C20CB
:100D910040201C3C4030403C44281028440C50501A
:100DA100503C4464544C44000836410000007F002C
:100DB10000004136080008082A1C08081C2A0808F7
:020DC100300000
:020DC30000002E
:0B0DC50043524F4E4F4D455452550015
:0E0DD000203030202D203030202D20303000FB
:020DDE00000013
:020DE0003000E1
:020DE2003000DF
:010DE400000E
:020DE50000000C
:00000001FF
