:100000000206510200000000000000020000000093
:1000100000000002000000000000000200000000DC
:0E0020000000000200000000000000020000CE
:10002E00EC600FEBC313FBEA13FAE913F9E813F8CC
:03003E00DCF122D0
:10004100EF88F0A4CB8CF0A42BFBEE89F0A42BFB62
:100051008DF0EAA42BFBED89F0A4CAAFF08CF0A4DB
:100061002ACB3F25F0FAEE88F0A42BCA35F0FBEC41
:1000710089F0A4F9AEF0EC88F0A4C8C5F029CA3E15
:0F008100F9E43BFBEDA42AC935F0FAE43BFB227E
:10009000751941751A03751B00751C0078417903A9
:1000A0007A007B00AC17AD18E4FEE4F5071141853A
:1000B000001985011A85021B85031C7C05112E85FC
:1000C000001985011A85021B85031CD3E89408E9F1
:1000D0009400EA9400EB9400401BC3E5199408F5E2
:1000E00019E51A9400F51AE51B9400F51BE51C941C
:1000F00000F51C800C751900751A00751B00751C25
:1001000000E519451A451B451C6026C3E5199401F5
:10011000F519E51A9400F51AE51B9400F51BE51C8A
:100120009400F51C000000000000000000000080AA
:02013000D022DB
:10013200750939750A04750B16751346751404751D
:100142001500751033751104751200759850758776
:080152008075884075892022A8
:10015A007580007590E075A04075B0E3850C178531
:10016A000D1811907580E075904075A0E075B00388
:10017A00850C17850D1811907580007590E175A092
:10018A004175B0E3850C17850D1811907590F375BC
:10019A00A043850C17850D1811907590EE75A04631
:1001AA00850C17850D1811907580E175904075A022
:1001BA00E075B003850C17850D1811907580F375DD
:1001CA009041850C17850D1811907580EB75904339
:1001DA00850C17850D1811907580EE75904675B0CF
:1001EA0003850C17850D1811907580007590E075C0
:1001FA00A04175B0E3850C17850D18119075A041C3
:10020A0075B0F3850C17850D1811907590E175A0DE
:10021A004375B0EF850C17850D1811907590E07530
:10022A00A04075B0E3850C17850D1811907590E004
:10023A0075A04075B0E3850C17850D18119075905F
:10024A007075A02075B073850C17850D18119075FF
:10025A00903875A01075B03B850C17850D18119054
:10026A0075901C75A00875B01F850C17850D18119F
:10027A009075900E75A00475B00F850C17850D1832
:10028A00119075900775A00275B007850C17850D3A
:10029A0018119075900175A00075B003850C17852B
:1002AA000D18119075900075A00075B003850C1794
:0602BA00850D18119022D1
:1002C00075800075900075A00075B003850C1785CA
:0502D0000D1811902241
:1002D5007580FF7590FF75A0FF75B0FF850C1785BC
:0502E5000D181190222C
:1002EA007580FF7590FF75A0FF75B0FF850C1785A7
:1002FA000D18119075A0F7850C17850D18119075BA
:10030A0090F375A0FB850C17850D1811907580E187
:10031A007590E3850C17850D1811907580C175903D
:10032A0083850C17850D181190C2A3850C17850DAE
:10033A00181190D2A3850C17850D181190C2A385A8
:10034A000C17850D1811907580FF7590FF75A0FF29
:10035A0075B0FF850C17850D181190758000759082
:10036A000075A00075A003850C17850D18119075EE
:10037A00807E75904275A05275B077850C17850DF1
:10038A0018119075901275A01275B07F850C17859B
:10039A000D18119075900475A004850C17850D1819
:1003AA00119075904A75A04A75B043850C17850D52
:1003BA0018119075904275A04275B07F850C17850B
:1003CA000D18119075803E75904075A04075B03F2C
:1003DA00850C17850D18119075807E75904A75A049
:1003EA004A75B043850C17850D18119075807E7576
:1003FA00901A75A02A75B04F850C17850D181190A3
:10040A0075806475901075A01075B067850C178596
:10041A000D18119075800075900075A00075B003D5
:09042A00850C17850D18119022B4
:06043300A298E433F82258
:0D043900C29985169920990280FBC2992274
:05044600C298A89922F4
:10044B007580EB7590D575A0EB75B0D7850C1785BE
:10045B000D1811907580D57590EB75A0D575B0EB17
:10046B00850C17850D1811907580EB7590D575A0BF
:10047B00C175B0C3850C17850D1811907580C175AA
:10048B0090C175A0EB75B0D7850C17850D18119021
:10049B007580EB7590D575A0EB75B0D7850C17856E
:1004AB000D1811907580D57590EB75A0D575B0EBC7
:1004BB00850C17850D1811907590E975B0EB850CAF
:1004CB0017850D1811907580D175A0D1850C1785E6
:1004DB000D1811907590E075A0D075B0E3850C17D1
:1004EB00850D1811907580C17590E075A0C075B021
:1004FB00E3850C17850D1811907580C07590C0752C
:10050B00A0C075B0C3850C17850D1811907590E0C0
:10051B0075A0E0850C17850D1811907580E075900E
:10052B00D075A0D075B0E3850C17850D181190759B
:10053B0080F07590C875A0C875B0F3850C17850D44
:10054B001811907580D87590E475A0E475B0DB85B3
:10055B000C17850D1811907580CC7590D275A0D2A3
:10056B0075B0CF850C17850D1811907580C67590D9
:10057B00C975A0C975B0C7850C17850D18119022C8
:00058B0070
:08058B00E493F608A3D9F9225C
:1005930075800875901875A08875B0F7850C178558
:1005A3000D18119075A08A75B0F3850C17850D1879
:1005B300119075901A75A08875B0F3850C17850D89
:1005C300181190758009759018850C17850D1811F1
:1005D30090758048850C17850D18119075800875E6
:1005E3009058850C17850D181190758028759018F3
:1005F300850C17850D181190758018850C17850DBE
:10060300181190C294850C17850D181190D29485FA
:100613000C17850D181190C294850C17850D1811B0
:1006230090758018850C17850D1811907580288595
:100633000C17850D181190758048850C17850D18BA
:0E0643001190758088850C17850D1811902276
:10065100758180438780758DF5758BF531327EA369
:100661007F1EDFFEDEFC0075800075900075A00026
:1006710075B003750C64750D00750E009133E8605B
:100681000A914685000F85001691398050850F0823
:10069100E11A850F08E11A850F08E11A850F08E1B3
:1006A1001A850F08E11A850F08E11A750E00E11A83
:1006B100750E01E11AD3E50C940AE50D9400400D85
:1006C100C3E50C940AF50CE50D9400F50D804A7410
:1006D1000A250CF50C7400350DF50D803CE50F6411
:1006E1003160AAE50F643260A9E50F643360A8E5C3
:1006F1000F643460A7E50F644160A6E50F645360A1
:10070100A5E50F645060A4E50F644F60A3E50F6495
:100711004660A2E50F645760B6750F79E50E703E2D
:100721008018B193803851EA8034315A8030914B2E
:10073100802C51D5802851C08024E508643160E2C5
:10074100E508643260E0E508643360DEE50864349E
:1007510060DCE508644160DAE508645360D8C17D76
:0207610080FE18
:00000001FF
