:03000000020100FA
:0300230002016D6A
:1001000075816075A890120157753000753180C2F5
:100110000075800075900075A00075B00320003553
:10012000E530B431061201DE020155B43206120286
:1001300051020155B43306120336020155B4340698
:10014000120433020155B4410612051E020155B4D2
:10015000530312052E80C6758920758DF5758CF5B3
:10016000758780759850D28EC299C29822C0E020BF
:100170009965E599F599B43105F5300201D7B432A6
:1001800005F5300201D7B43305F5300201D7B43498
:1001900005F5300201D7B44105F5300201D7B4535B
:1001A00005F5300201D7B45005C2000201D7B44FA3
:1001B00005D2000201D7B4460FE531B410030201A5
:1001C000D79410F5310201D7B4570CE531B4F003E0
:1001D0000201D72410F531C298C299D0E03275805F
:1001E0000875901875A08875B0F712053E75A08A3D
:1001F00075B0F312053E75901A75A08875B0F312AC
:10020000053E75800975901812053E7580481205E7
:100210003E75800875905812053E758028759018B7
:1002200012053E75801812053EC29412053ED29406
:1002300012053EC29412053E75801812053E758067
:100240002812053E75804812053E75808812053ECD
:10025000227580FF7590FF75A0FF75B0FF12053EF7
:1002600075A0F712053E7590F375A0FB12053E755B
:1002700080E17590E312053E7580C175908312058B
:100280003EC2A312053ED2A312053EC2A312053EF2
:100290007580FF7590FF75A0FF75B0FF12053E7564
:1002A000800075900075A00075B00312053E758042
:1002B0007E75904275A05275B07712053E7590120A
:1002C00075A01275B07F12053E75900475A00412DA
:1002D000053E75904A75A04A75B04312053E75906B
:1002E0004275A04275B07F12053E75803E75904004
:1002F00075A04075B03F12053E75807E75904A75B9
:10030000A04A75B04312053E75807E75901A75A09F
:100310002A75B04F12053E75806475901075A01057
:1003200075B06712053E75800075900075A0007568
:10033000B00312053E227580007590E075A04075EF
:10034000B0E312053E7580E075904075A0E075B091
:100350000312053E7580007590E175A04175B0E30C
:1003600012053E7590F375A04312053E7590EE752B
:10037000A04612053E7580E175904075A0E075B00D
:100380000312053E7580F375904112053E7580EBB2
:1003900075904312053E7580EE75904675B0031258
:1003A000053E7580007590E075A04175B0E31205BB
:1003B0003E75A04175B0F312053E7590E175A043FE
:1003C00075B0EF12053E7590E075A04075B0E31270
:1003D000053E7590E075A04075B0E312053E75903E
:1003E0007075A02075B07312053E75903875A01019
:1003F00075B03B12053E75901C75A00875B01F12B4
:10040000053E75900E75A00475B00F12053E7590EF
:100410000775A00275B00712053E75900175A00022
:1004200075B00312053E75900075A00075B00312FB
:10043000053E227580EB7590D575A0EB75B0D7128F
:10044000053E7580D57590EB75A0D575B0EB12059E
:100450003E7580EB7590D575A0C175B0C312053E91
:100460007580C17590C175A0EB75B0D712053E754A
:1004700080EB7590D575A0EB75B0D712053E7580F1
:10048000D57590EB75A0D575B0EB12053E7590E96A
:1004900075B0EB12053E7580D175A0D112053E7581
:1004A00090E075A0D075B0E312053E7580C17590DF
:1004B000E075A0C075B0E312053E7580C07590C0B0
:1004C00075A0C075B0C312053E7590E075A0E0122E
:1004D000053E7580E07590D075A0D075B0E312052B
:1004E0003E7580F07590C875A0C875B0F312053ED2
:1004F0007580D87590E475A0E475B0DB12053E7583
:1005000080CC7590D275A0D275B0CF12053E7580A3
:10051000C67590C975A0C975B0C712053E22758011
:10052000FF7590FF75A0FF75B0FF12053E22758024
:100530000075900075A00075B00312053E22A93128
:080540007AFF00DAFDD9F9226F
:00000001FF
